:020000040800F2
:10000000E8070020D501000835090008FD070008B1
:100010003109000849060008DF140008000000004C
:10002000000000000000000000000000750B000848
:100030004D06000800000000FD090008410D000801
:10004000EF010008EF010008EF010008EF010008D0
:10005000EF010008EF010008EF010008EF010008C0
:10006000EF010008EF010008EF010008EF010008B0
:10007000EF010008EF010008EF010008EF010008A0
:10008000EF010008EF010008EF010008EF01000890
:10009000EF010008EF010008EF010008EF01000880
:1000A000EF010008EF010008EF010008EF01000870
:1000B000EF010008790E0008EF010008EF010008C9
:1000C000EF010008EF010008EF010008EF01000850
:1000D000EF01000805100008AD100008EF0100084E
:1000E000EF010008EF010008EF010008EF01000830
:1000F000EF010008EF010008EF010008EF01000820
:10010000EF010008EF010008EF010008EF0100080F
:10011000EF010008EF010008EF010008EF010008FF
:10012000EF010008EF010008EF010008EF010008EF
:1001300000F002F800F03FF80AA090E8000C8244BA
:100140008344AAF10107DA4501D100F034F8AFF297
:10015000090EBAE80F0013F0010F18BFFB1A43F0A5
:10016000010318475817000078170000103A24BF01
:1001700078C878C1FAD8520724BF30C830C144BF0C
:1001800004680C607047000000230024002500264E
:10019000103A28BF78C1FBD8520728BF30C148BFEA
:1001A0000B607047732900F01882002070471FB55C
:1001B0001FBD10B510BD00F014FA1146FFF7F7FF90
:1001C00001F046FA00F032FA03B4FFF7F2FF03BC85
:1001D00001F08EF90948804709480047FEE7FEE72D
:1001E000FEE7FEE7FEE7FEE7FEE7FEE7FEE7FEE7E7
:1001F00004480549054A064B70470000450D0008B4
:1002000031010008E8010020E8070020E803002091
:10021000E8030020704700000FB41CB5084B06AA85
:100220007B4469460090059800F0ADF90446002033
:10023000694600F0BBF920461CBC5DF814FB0000C9
:100240008903000070B50C460546012A05D02878C0
:10025000800600D5EA69002302E0012305E05B1C6B
:10026000934202D2E05C0028F9D1A869E618C01ACE
:10027000A861286A184428622846AFF3008004E089
:10028000D5E9012114F8010B9047B442F8D3284670
:10029000AFF3008070BD00002DE9F05F8946044691
:1002A0004FF0000ADFF874B1FB44C0F820A02046EC
:1002B000E1688847002874D0252806D0D4E90121B8
:1002C0009047206A401C2062F1E700265F462046E6
:1002D000E16888472028054607DB312D05D27819CB
:1002E00010F8200C08B10643F1E7B00701D526F05D
:1002F0000406C4F81CA00027C4F818A02A2D09D0B1
:10030000284601F0EEF838B304EB8708303DC8F812
:10031000185019E059F8041B204604EB870291613C
:10032000E1688847012F054618D1E069002820DAE6
:1003300026F020061DE0D8F8180000EB800005EB41
:1003400040003038C8F818002046E1688847054664
:1003500001F0C7F80028EED1012F0AD02E2D08D1C8
:100360002046E16888477F1C0546022F46F020069C
:10037000C4DBA069002803DA404246F00106A06110
:10038000F00701D026F010066C2D0BD0682D09D097
:100390004C2D39D06A2D35D0742D35D07A2D33D0EF
:1003A00016E038E0E1682F4620468847B842054607
:1003B00009D16C2F26D04FF48060E16806432046B7
:1003C0008847054604E06C2F1AD04FF4807006432E
:1003D0000DB3A5F14100192802D8203546F4006676
:1003E0004A462946204626604E46FFF7DBFE80B18E
:1003F00001280BD0F61D26F0070000F1080956E78A
:100400004020E4E78020D8E70020D6E706F1040981
:100410004DE7284652E7206ABDE8F09FFC15000032
:1004200030B505460B462A4613F8014B12F8010B6E
:1004300008B1A042F8D01CB1002802D06D1CF1E731
:10044000284630BD40EA0103024630B59B0710D173
:100450004FF0013400E008C208C91D1B9D4315EA96
:10046000C41FF8D013F0FF0102F8011B0DD01B0AC6
:10047000F8E711F8013B002B02F8013B05D011F819
:10048000013B002B02F8013BF3D130BD10B5431CFA
:1004900002E010F8011B71B18107FAD14FF001326F
:1004A00002C88C1A8C4314EAC211F9D0C01A0A0689
:1004B00003D0C01E10BDC01A10BD0A0401D0801E9A
:1004C00010BD0902FCD0401E10BD421E12F8013FB3
:1004D000002BFBD111F8013B002B02F8013BF9D1B5
:1004E00070474FF000020429C0F0128010F0030C96
:1004F00000F01B80CCF1040CBCF1020F18BF00F817
:10050000012BA8BF20F8022BA1EB0C0100F00DB8C5
:100510005FEAC17C24BF00F8012B00F8012B48BF23
:1005200000F8012B70474FF0000200B513469446C7
:100530009646203922BFA0E80C50A0E80C50B1F13B
:100540002001BFF4F7AF090728BFA0E80C5048BF4F
:100550000CC05DF804EB890028BF40F8042B08BFED
:10056000704748BF20F8022B11F0804F18BF00F8E9
:10057000012B7047704770477047704701694A1CEC
:1005800002610878704700B58FB0CDE901310021D4
:10059000059105497944CDE9031011466846FFF7F6
:1005A0007BFE0FB000BD0000E5FFFFFF0A6802F808
:1005B000010B0A60704710B5436913B1AFF30080B7
:1005C00001E0FFF73FFE012010BD127800F1240189
:1005D0000A7000224A700122EDE711684FF0FF32E5
:1005E000E9E7754600F02CF8AE460500694653462B
:1005F00020F00700854618B020B5FFF7F9FDBDE8EB
:1006000020404FF000064FF000074FF000084FF079
:10061000000B21F00701AC46ACE8C009ACE8C0090A
:10062000ACE8C009ACE8C0098D46704710B5044677
:10063000AFF300802046BDE81040FFF7C5BD0000C5
:10064000004870478801002000BFFEE770472DE991
:10065000F041024600250026002000230024002748
:1006600091F803C00CF00F0591F803C00CF0100CCA
:10067000BCF1000F03D091F802C04CEA050591F8D7
:1006800000C0BCF1000F31D0146800202BE04FF007
:10069000010C0CFA00F3B1F800C00CEA03069E420C
:1006A00020D183004FF00F0C0CFA03F7BC4305FA7E
:1006B00003FC4CEA040491F803C0BCF1280F06D1F6
:1006C0004FF0010C0CFA00FCC2F814C00AE091F8DB
:1006D00003C0BCF1480F05D14FF0010C0CFA00FC2F
:1006E000C2F810C0401C0828D1D31460B1F800C073
:1006F000BCF1FF0F34DD546800202EE000F1080C3F
:100700004FF0010808FA0CF3B1F800C00CEA030638
:100710009E4221D183004FF00F0C0CFA03F7BC432B
:1007200005FA03FC4CEA040491F803C0BCF1280F5D
:1007300005D100F1080C08FA0CF8C2F8148091F801
:1007400003C0BCF1480F07D100F1080C4FF00108BD
:1007500008FA0CF8C2F81080401C0828CED3546068
:10076000BDE8F081F0B50A460023002400210025F1
:1007700000F00046B6F1004F02D11D4EF16901E0D4
:100780001B4E7168C0F3034583B200F44016B6F502
:10079000401F08D121F07061154E766826F0706612
:1007A000134F7E6012E000F48016B6F5801F06D16C
:1007B000032606FA05F4A14341F0706106E0460DF8
:1007C000360103FA06F6B14341F0706122B1460DDD
:1007D000360103FA06F6314300F00046B6F1004F49
:1007E00002D1034EF16101E0014E7160F0BD0000E5
:1007F00000000140416170470161704700BFFEE7A2
:1008000008B50121052000F00BF901210B48FFF785
:10081000A9FF4FF48070ADF8000010208DF80300A0
:1008200003208DF8020069460548FFF710FF4FF4DA
:1008300080710348FFF7E0FF08BD000000023000B0
:100840000008014000B585B007A16846FFF7E4FC49
:100850004FF4FA7207A1684600F02EF810B101209B
:1008600005B000BD0020FBE741542B4345524547EE
:100870003F00000043455245473A20302C310000EC
:1008800000B585B007A16846FFF7C6FC4FF4FA72C1
:1008900007A1684600F010F810B1012005B000BDB6
:1008A0000020FBE741542B4350494E3F000000001D
:1008B00052454144590000002DE9F04705460C46D9
:1008C0001646A946A0461648B0F864006FF30E001D
:1008D0001349A1F864000846B0F8640020F4004011
:1008E000A1F8640064210E48FFF7FBFD4A460DA104
:1008F0000E4800F071FDB0B200F04AFEB8F1000FF2
:1009000001D1012708E041460548FFF789FD08B1FC
:10091000012000E0002007463846BDE8F0870000CF
:100920004000002025730D0A000000000044004034
:1009300000BFFEE7704710B54FF4A06000F03AF832
:1009400010BD000070B5002100230F22C47804B34D
:10095000154C246804F4E064C4F5E064210AC1F194
:100960000403CA40447804FA03F184781440214314
:1009700009010E4C0678A155047804F01F050124E6
:10098000AC4005786D11AD0005F1E025C5F80041DA
:1009900009E0047804F01F050124AC40044D0678FA
:1009A000761145F8264070BD0CED00E000E400E053
:1009B00080E100E002490143024A116070470000F3
:1009C0000000FA050CED00E000B58DB007A1684607
:1009D000FFF722FC4FF4FA7200216846FFF76CFF24
:1009E00010B101200DB000BD0020FBE741542B5A8F
:1009F000495043414C4C3D3100000000704700001D
:100A000029B1064AD2690243044BDA6104E0034A81
:100A1000D2698243014BDA61704700000010024046
:100A200029B1064A92690243044B9A6104E0034AE1
:100A300092698243014B9A617047000000100240A6
:100A400030B500210022002400232D4D6D6805F0F3
:100A50000C0121B1042905D0082923D105E0294D35
:100A6000056022E0274D05601FE0254D6D6805F407
:100A70007012234D6D6805F48034022505EB924217
:100A80001CB9214D554305600BE01D4D6D6805F403
:100A900000351DB11C4D5543056002E0194D55430D
:100AA000056002E0174D056000BF00BF144D6D6882
:100AB00005F0F0010909154D6B5C0568DD404560E6
:100AC0000F4D6D6805F4E061090A104D6B5C4568D7
:100AD000DD4085600A4D6D6805F46051C90A0B4D13
:100AE0006B5C4568DD40C560054D6D6805F44041AF
:100AF000890B074D6B5CC568B5FBF3F5056130BD2F
:100B00000010024000127A0000093D002C00002075
:100B10003C00002000B599B064216846FFF703FD52
:100B20001048B0F86400C00B08B919B000BD0D49F9
:100B30006846FFF787FC0CA16846FFF771FC28B1F7
:100B400001200A49086000F0D5FC09E008A16846C8
:100B5000FFF766FC20B100200449086000F0CAFCE1
:100B600000BFE2E7400000205334340084012142FA
:100B700053333300704710B500F002F810BD000089
:100B80000CB50020019000903348006840F480309C
:100B90003149086000BF3048006800F40030009020
:100BA0000198401C0190009818B90198B0F5A06F09
:100BB000F1D12948006800F4003010B10120009004
:100BC00001E0002000900098012843D123480068EC
:100BD00040F01000214908600846006820F003003A
:100BE00008600846006840F0020008601A48406843
:100BF000194948600846406848600846406840F423
:100C0000806048600846406820F47C1048600846D0
:100C1000406840F4E81048600846006840F0807082
:100C2000086000BF0C48006800F000700028F9D090
:100C30000948406820F003000749486008464068BA
:100C400040F00200486000BF0348406800F00C001C
:100C50000828F9D10CBD000000100240002002401D
:100C600010B500BF4FF400712848FFF7C5FD4FF4E1
:100C7000FA6000F08DFC4FF400712448FFF7BAFDD4
:100C800041F2883000F084FC32202149086006E0FF
:100C90001F490868411E1E4A116000B9E2E7FFF7CC
:100CA000EFFD0028F4D032201949086006E0184909
:100CB0000868411E164A116000B9D3E7FFF7C2FD6C
:100CC0000028F4D032201249086006E01049086874
:100CD000411E0F4A116000B9C4E7FFF775FE0028F6
:100CE000F4D032200A49086006E009490868411E2C
:100CF000074A116000B9B5E700F054F80028F4D0B5
:100D000000F076F801200349087010BD0010014082
:100D10001800002014000020042808D14FF0E02122
:100D2000096941F004014FF0E022116107E04FF042
:100D3000E021096921F004014FF0E02211617047C0
:100D40007047000010B51348006840F001001149D9
:100D5000086008464068104908400E494860084647
:100D600000680E4908400B4908600846006820F4F6
:100D7000802008600846406820F4FE0048604FF478
:100D80001F008860FFF7F7FE4FF00060044908601D
:100D900010BD0000001002400000FFF8FFFFF6FE4B
:100DA00008ED00E000B58DB007A16846FFF734FA02
:100DB0004FF4FA7200216846FFF77EFD10B1012062
:100DC0000DB000BD0020FBE741542B5A49504F5055
:100DD000454E3D312C302C3131352E3233362E31CB
:100DE00035332E3137342C3235373733000000009D
:100DF00000B58DB007A16846FFF70EFA4FF4FA72FE
:100E00000BA16846FFF758FD10B101200DB000BDE1
:100E10000020FBE741542B5A4950414C4956453D6F
:100E2000312C312C3330302C37352C390000000078
:100E30004F4B000010B58EB00446224608A101A811
:100E4000FFF7EAF9C8220AA101A8FFF735FD20B98A
:100E5000002008490870FFF703FF0EB010BD000026
:100E600041542B5A495053454E443D312C25730073
:100E70004F4B00001400002010B50121094800F07C
:100E800054F868B10848006808B9012000E0002063
:100E90000549086000F00CFC0121024800F036F81A
:100EA00010BD000000040040A00121427FB50546AE
:100EB0000C4601210220FFF7A3FDADF80850ADF864
:100EC00004400020ADF80A00ADF8060001A90E4864
:100ED00000F046F8012211460B4800F037F81D20BB
:100EE0008DF8000000208DF8010003208DF802002D
:100EF00001208DF803006846FFF724FD0121024818
:100F000000F007F87FBD000000040040CA430282E1
:100F1000704721B1028842F00102028004E0028899
:100F20004FF6FE731A400280704730B5024600202B
:100F300000230024158A05EA0103958905EA0104C6
:100F400013B10CB1012000E0002030BD1AB183893B
:100F50000B43838102E083898B43838170470000C8
:100F6000002202881D4B98420ED01D4B98420BD098
:100F7000B0F1804F08D01B4B984205D01A4B9842D5
:100F800002D01A4B984204D14FF68F731A404B8807
:100F90001A43174B984207D0164B984204D04FF68D
:100FA000FF431A40CB881A4302808B8883850B88C5
:100FB00003850A4B98420BD0094B984208D00E4B40
:100FC000984205D00D4B984202D00D4B984201D16A
:100FD0000B7A03860123838270470000002C0140B6
:100FE000003401400004004000080040000C0040B4
:100FF0000010004000140040004001400044014047
:10100000004801407FB524A103C9CDE9020122A116
:1010100003C9CDE90001694602A8FFF756FA054663
:1010200040F225511E4800F0E4F810B31C4800F0CF
:101030009BF9C4B21B48008800F40040C8B91948A5
:10104000008800F4804060B10A2C03D000201549CC
:10105000088020E01348008840F4004011490880CF
:1010600019E00D2C06D10F48008840F480400D494E
:10107000088010E00B480088C0F30D000A490C54AA
:1010800008480088401C0749088008460088C7288F
:1010900001DD002008807FBD31323334350000008F
:1010A0000038014024000020A600002010B540F2C6
:1010B00025511A4800F09DF8C8B1184800F054F9BD
:1010C000C4B21748B0F86400C0F30E0062280EDA0C
:1010D0001349B1F86410C1F30E00411C104AB2F874
:1010E000642061F30E020E49A1F864200C5440F212
:1010F00024410A4800F07DF801280DD10848B0F8D5
:10110000640020F4004000F500400549A1F86400A7
:10111000024800F029F9C4B210BD000000440040AC
:101120004000002010B500F01FF800F027F910BDB6
:1011300008B526208DF8000002208DF801008DF8FA
:10114000020001208DF803006846FFF7FBFB08BD95
:1011500021B1828942F40052828104E082894DF6F5
:10116000FF731A408281704708B501210420FFF700
:1011700057FC01211020FFF753FC4FF40070ADF82D
:10118000000010208DF8030003208DF8020069464E
:101190000F48FFF75CFA4FF400710D48FFF72AFB88
:1011A0000420ADF8000018208DF8030003208DF80E
:1011B000020069460748FFF74AFA0820ADF8000028
:1011C00004208DF8030069460248FFF740FA08BD85
:1011D000001001400008014002460020B1F5007FE8
:1011E00000D100BF13880B400BB1012000E00020AC
:1011F000704770B50246002400230025002040F609
:101200006A16B14200D100BFC1F3421501F01F03BD
:10121000012606FA03F3012D02D19689334006E038
:10122000022D02D1168A334001E0968A33400C1217
:10123000012606FA04F41688344013B10CB10120DB
:1012400000E0002070BDF0B5034600240026002514
:10125000002040F66A17B94200D100BF1846C1F31A
:10126000421401F01F06012707FA06F5012C01D1EF
:101270000C3004E0022C01D1103000E014301AB11F
:1012800007682F43076002E00768AF430760F0BDBF
:101290002DE9F04786B005460E460024A24600BF61
:1012A000A1460027B08900B100BF2F462C8A4CF61A
:1012B000FF700440F08804432C82AC894EF6F31092
:1012C0000440B08831890843718908430443AC81E4
:1012D000AC8A4FF6FF400440B0890443AC8201A8B9
:1012E000FFF7AEFB1F48874202D1DDF810A001E0F6
:1012F000DDF80CA0A88900F4004040B10AEBCA0058
:1013000000EB0A1031684900B0FBF1F807E00AEB86
:10131000CA0000EB0A1031688900B0FBF1F86420C4
:10132000B8FBF0F004012009642101FB1089A889B1
:1013300000F4004040B1322000EBC900B0FBF1F0F6
:1013400000F00700044308E0322000EB091064219C
:10135000B0FBF1F000F00F0004432C8106B0BDE8B3
:10136000F08700000038014001468888C0F308007B
:101370007047C1F308028280704700001FB5012149
:101380004804FFF73DFB4FF4E13000900020ADF83A
:101390000400ADF80600ADF80800ADF80C000C2014
:1013A000ADF80A0069460B48FFF772FF012240F2D0
:1013B00025510848FFF747FF012240F22441054824
:1013C000FFF741FFFFF7B4FE01210248FFF7C0FE1F
:1013D0001FBD0000004400400FB470B586B0064643
:1013E0000CA8019073E00B9800785C281CD10B9836
:1013F000401C0B9000786E2809D072280FD10D2167
:101400003046FFF7B6FF0B98401C0B900BE00A210B
:101410003046FFF7AEFF0B98401C0B9003E00B9893
:10142000401C0B9000BF4BE00B980078252840D162
:101430000B98401C0B900078642818D0732833D187
:10144000019810C801900BE021783046FFF791FF1A
:1014500000BF80213046FFF7BFFE0028F9D0641C92
:1014600020780028F0D10B98401C0B9020E00198C8
:1014700020C801900A2202A9284600F0B7F802AC61
:101480000BE021783046FFF774FF00BF8021304623
:10149000FFF7A2FE0028F9D0641C20780028F0D1C4
:1014A0000B98401C0B9003E00B98401C0B9000BF66
:1014B00006E00B9810F8011B0B903046FFF759FF20
:1014C00000BF80213046FFF787FE0028F9D00B9837
:1014D0000078002887D106B070BC5DF814FB00BF0F
:1014E000FEE730380A2801D20120704700207047FB
:1014F00000BF704710B50C48B0F864006FF30E00E1
:101500000949A1F864000846B0F8640020F40040DE
:10151000A1F864000846FEF7B9FF044621460248D8
:10152000FEF7DFFF10BD00004000002070B505464B
:101530000C4625B900F052F8207072B604E020780D
:1015400008B162B600E072B670BD000010B56FF071
:101550000400FFF7E1FB0A4800680A49B0FBF1F01C
:10156000094908700846007800EB4001C1EBC01043
:101570004FF6FF7101EAC0000449088010BD000069
:101580000000002000127A001C0000201E00002035
:101590000146114A12884A434FF0E0235A61002263
:1015A0009A611A46126942F001021A6100BF4FF0B7
:1015B000E022106900F001021AB100F48032002A22
:1015C000F5D04FF0E022126922F001024FF0E02343
:1015D0001A6100229A6170471E00002000BFEFF3DD
:1015E000108008B9012070470020FCE7F0B50346E1
:1015F0000D461646002729460A2E03D00020087003
:101600002846F0BD33B9302001F8010B00200870E6
:101610002846F6E7002B03DA2D2001F8010B5B4288
:1016200042F210720DE093FBF2F404B937B104F109
:10163000300001F8010B04FB123301270A2092FB52
:10164000F0F2002AEFDC002008702846D9E70000FD
:1016500010B5FFF770F9FFF779FFFFF7D1F84FF4F6
:10166000165000F0D1F8FFF75DFD41F61F4141F241
:101670008730FFF71BFCFFF7F3FA0A4800F04CF83D
:1016800000F092F8002301220749184600F04CF8B8
:10169000002302220549012000F046F800F066F818
:1016A000002010BD2D150008150B0008E5170008D7
:1016B00000202CE000EB4001164A52F8211021B323
:1016C00000EB400102EB81010989491C00EB40025B
:1016D000104B03EB8202118100EB40011A4602EB32
:1016E0008101098900EB400203EB8202D28891421A
:1016F0000BDB002100EB400203EB82021181012190
:1017000000EB400203EB82021171411CC8B20228B7
:10171000D0DB7047700100200249096809B901490E
:10172000086070472800002070B500EB40040E4DA3
:1017300055F82440B4B900EB400445F824100024C7
:1017400000EB4005084E06EB85052C7100EB4004CC
:10175000354605EB8404E280002400EB400506EBEF
:1017600085052C8170BD00007001002019E0002467
:1017700015E004EB44000B4901EB800000790128DF
:101780000BD1002004EB4401064A02EB81010871F1
:1017900004EB440152F821008047601CC4B2022CC3
:1017A000E7DBE4E770010020002016E0002100EBF9
:1017B00040020B4B43F8221000EB400203EB820285
:1017C000117100EB400203EB8202D18000EB40027A
:1017D00003EB82021181411CC8B20228E6DB70478C
:1017E0007001002010B50348007810B102A0FFF787
:1017F00021FB10BD14000020343836353643364303
:10180000364632310000000010B586B00446012192
:1018100044F20500FFF704F94FF40070ADF814002E
:1018200003208DF8160018208DF8170005A91C4814
:10183000FEF70DFF4FF48060ADF8140004208DF822
:10184000170005A91648FEF702FF25208DF80000B5
:1018500003208DF801008DF8020001208DF80300AF
:101860006846FFF76FF801940020ADF80800ADF866
:101870000A00ADF80C00ADF810000C20ADF80E0019
:1018800001A90848FFF704FD012240F2255105484F
:10189000FFF7D9FC01210348FFF75AFC06B010BD41
:1018A000000801400038014004000008000000006A
:1018B000000000020001000010000000DC18000819
:1018C00000000020400000006C0100081C19000806
:1018D00040000020A80700008801000800A24A0478
:1018E00000000000000000000102030406070809D0
:1018F00000000000320000000000000000000000B6
:1019000000000000000000000000000001020304CD
:0C1910000102030406070809020406088F
:0400000508000131BD
:00000001FF
