:020000040800F2
:1000000028080020CD0100088D04000845040008E0
:100010008904000895020008D70D000800000000C0
:100020000000000000000000000000002D06000895
:1000300099020008000000001505000841070008AB
:10004000E7010008E7010008E7010008E7010008F0
:10005000E7010008E7010008E7010008E7010008E0
:10006000E7010008E7010008E7010008E7010008D0
:10007000E7010008E7010008E7010008E7010008C0
:10008000E7010008E7010008E7010008E7010008B0
:10009000E7010008E7010008E7010008E7010008A0
:1000A000E7010008E7010008E7010008E701000890
:1000B000E7010008A5070008E7010008E7010008BC
:1000C000E7010008E7010008E7010008E701000870
:1000D000E70100082D090008D5090008E70100081C
:1000E000E7010008E7010008E7010008E701000850
:1000F000E7010008E7010008E7010008E701000840
:10010000E7010008E7010008E7010008E70100082F
:10011000E7010008E7010008E7010008E70100081F
:10012000E7010008E7010008E7010008E70100080F
:1001300000F002F800F03AF80AA090E8000C8244BF
:100140008344AAF10107DA4501D100F02FF8AFF29C
:10015000090EBAE80F0013F0010F18BFFB1A43F0A5
:1001600001031847140E0000340E0000103A24BF9B
:1001700078C878C1FAD8520724BF30C830C144BF0C
:1001800004680C607047000000230024002500264E
:10019000103A28BF78C1FBD8520728BF30C148BFEA
:1001A0000B6070471FB51FBD10B510BD00F03FF8C4
:1001B0001146FFF7F7FF00F067FE00F05DF803B4AB
:1001C000FFF7F2FF03BC00F008FE0000094880477B
:1001D00009480047FEE7FEE7FEE7FEE7FEE7FEE729
:1001E000FEE7FEE7FEE7FEE704480549054A064B41
:1001F0007047000045070008310100082802002070
:100200002808002028040020280400207047421EEF
:1002100012F8013F002BFBD111F8013B002B02F833
:10022000013BF9D17047704770477047704775467A
:1002300000F02CF8AE4605006946534620F0070052
:10024000854618B020B5FFF7CFFFBDE820404FF03E
:1002500000064FF000074FF000084FF0000B21F0B0
:100260000701AC46ACE8C009ACE8C009ACE8C0097D
:10027000ACE8C0098D46704710B50446AFF3008066
:100280002046BDE81040FFF79ABF000000487047C5
:10029000C801002000BFFEE770472DE9F04102468B
:1002A00000250026002000230024002791F803C029
:1002B0000CF00F0591F803C00CF0100CBCF1000F0E
:1002C00003D091F802C04CEA050591F800C0BCF1DA
:1002D000000F31D0146800202BE04FF0010C0CFA15
:1002E00000F3B1F800C00CEA03069E4220D183005F
:1002F0004FF00F0C0CFA03F7BC4305FA03FC4CEA71
:10030000040491F803C0BCF1280F06D14FF0010C92
:100310000CFA00FCC2F814C00AE091F803C0BCF16A
:10032000480F05D14FF0010C0CFA00FCC2F810C0C8
:10033000401C0828D1D31460B1F800C0BCF1FF0FF5
:1003400034DD546800202EE000F1080C4FF0010865
:1003500008FA0CF3B1F800C00CEA03069E4221D162
:1003600083004FF00F0C0CFA03F7BC4305FA03FCB3
:100370004CEA040491F803C0BCF1280F05D100F148
:10038000080C08FA0CF8C2F8148091F803C0BCF10C
:10039000480F07D100F1080C4FF0010808FA0CF8DB
:1003A000C2F81080401C0828CED35460BDE8F0810C
:1003B000F0B50A46002300240021002500F0004685
:1003C000B6F1004F02D11D4EF16901E01B4E71687C
:1003D000C0F3034583B200F44016B6F5401F08D1C0
:1003E00021F07061154E766826F07066134F7E60BE
:1003F00012E000F48016B6F5801F06D1032606FA37
:1004000005F4A14341F0706106E0460D360103FAA0
:1004100006F6B14341F0706122B1460D360103FA90
:1004200006F6314300F00046B6F1004F02D1034E0C
:10043000F16101E0014E7160F0BD0000000001407B
:100440000161704700BFFEE708B50121052000F0FB
:1004500073F801210A48FFF7ABFF0220ADF8000056
:1004600010208DF8030003208DF80200694605482E
:10047000FFF713FF02210348FFF7E2FF08BD00006A
:10048000000230000008014000BFFEE77047000096
:1004900070B5002100230F22C47804B3154C2468E2
:1004A00004F4E064C4F5E064210AC1F10403CA4025
:1004B000447804FA03F184781440214309010E4C76
:1004C0000678A155047804F01F050124AC40057896
:1004D0006D11AD0005F1E025C5F8004109E0047893
:1004E00004F01F050124AC40044D0678761145F850
:1004F000264070BD0CED00E000E400E080E100E08B
:1005000002490143024A1160704700000000FA05E9
:100510000CED00E07047000029B1064AD2690243A1
:10052000044BDA6104E0034AD2698243014BDA6189
:10053000704700000010024029B1064A9269024348
:10054000044B9A6104E0034A92698243014B9A6129
:10055000704700000010024030B500210022002446
:1005600000232D4D6D6805F00C0121B1042905D043
:10057000082923D105E0294D056022E0274D0560BB
:100580001FE0254D6D6805F47012234D6D6805F46C
:100590008034022505EB92421CB9214D554305607C
:1005A0000BE01D4D6D6805F400351DB11C4D554324
:1005B000056002E0194D5543056002E0174D0560E6
:1005C00000BF00BF144D6D6805F0F0010909154D1D
:1005D0006B5C0568DD4045600F4D6D6805F4E061BA
:1005E000090A104D6B5C4568DD4085600A4D6D68F9
:1005F00005F46051C90A0B4D6B5C4568DD40C56070
:10060000054D6D6805F44041890B074D6B5CC5686D
:10061000B5FBF3F5056130BD0010024000127A0011
:1006200000093D001E0000202E000020704710B57C
:1006300000F002F810BD00000CB500200190009001
:100640003348006840F480303149086000BF3048CA
:10065000006800F4003000900198401C0190009860
:1006600018B90198B0F5A06FF1D12948006800F4DD
:10067000003010B10120009001E0002000900098AF
:10068000012843D12348006840F010002149086048
:100690000846006820F0030008600846006840F043
:1006A000020008601A4840681949486008464068D6
:1006B00048600846406840F48060486008464068EA
:1006C00020F47C1048600846406840F4E810486018
:1006D0000846006840F08070086000BF0C48006861
:1006E00000F000700028F9D00948406820F00300AD
:1006F000074948600846406840F00200486000BF73
:100700000348406800F00C000828F9D10CBD000037
:100710000010024000200240042808D14FF0E021E0
:10072000096941F004014FF0E022116107E04FF048
:10073000E021096921F004014FF0E02211617047C6
:100740007047000010B51348006840F001001149DF
:10075000086008464068104908400E49486008464D
:1007600000680E4908400B4908600846006820F4FC
:10077000802008600846406820F4FE0048604FF47E
:100780001F008860FFF753FF4FF0006004490860C6
:1007900010BD0000001002400000FFF8FFFFF6FE51
:1007A00008ED00E010B50121084800F052F858B1FA
:1007B0000748006808B9012000E0002004490860EB
:1007C0000121024800F036F810BD0000000400408E
:1007D000840121427FB505460C4601210220FFF726
:1007E0009BFEADF80850ADF804400020ADF80A00BB
:1007F000ADF8060001A90E4800F046F801221146A6
:100800000B4800F037F81D208DF8000000208DF80F
:10081000010003208DF8020001208DF803006846D6
:10082000FFF736FE0121024800F007F87FBD000007
:1008300000040040CA430282704721B1028842F09E
:100840000102028004E002884FF6FE731A40028023
:10085000704730B50246002000230024158A05EABF
:100860000103958905EA010413B10CB1012000E0F0
:10087000002030BD1AB183890B43838102E0838954
:100880008B43838170470000002202881D4B9842F1
:100890000ED01D4B98420BD0B0F1804F08D01B4BAF
:1008A000984205D01A4B984202D01A4B984204D174
:1008B0004FF68F731A404B881A43174B984207D054
:1008C000164B984204D04FF6FF431A40CB881A4388
:1008D00002808B8883850B8803850A4B98420BD056
:1008E000094B984208D00E4B984205D00D4B9842C8
:1008F00002D00D4B984201D10B7A038601238382EB
:1009000070470000002C014000340140000400400A
:1009100000080040000C004000100040001400409F
:100920000040014000440140004801407FB524A13F
:1009300003C9CDE9020122A103C9CDE9000169463D
:1009400002A8FFF764FC054640F225511E4800F05E
:10095000CCF810B31C4800F083F9C4B21B480088DF
:1009600000F40040C8B91948008800F4804060B124
:100970000A2C03D000201549088020E01348008885
:1009800040F400401149088019E00D2C06D10F48B1
:10099000008840F480400D49088010E00B48008832
:1009A000C0F30D000A490C5408480088401C074950
:1009B000088008460088C72801DD002008807FBD28
:1009C0003132333435000000003801401C00002073
:1009D000FE00002010B540F225511A4800F085F8BD
:1009E000C8B1184800F03CF9C4B21748B0F8C800C4
:1009F000C0F30E00C6280EDA1349B1F8C810C1F3CF
:100A00000E00411C104AB2F8C82061F30E020E49D4
:100A1000A1F8C8200C5440F224410A4800F065F8BF
:100A200001280DD10848B0F8C80020F4004000F5B6
:100A300000400549A1F8C800024800F011F9C4B20D
:100A400010BD0000004800403400002008B52720F9
:100A50008DF8000002208DF801008DF802000120C1
:100A60008DF803006846FFF713FD08BD21B18289A8
:100A700042F40052828104E082894DF6FF731A40ED
:100A80008281704708B501210820FFF755FD01213B
:100A90001020FFF751FD4FF48060ADF800001820E2
:100AA0008DF8030003208DF8020069460748FFF720
:100AB000F4FB4FF40060ADF8000004208DF8030053
:100AC00069460248FFF7E9FB08BD0000000C014041
:100AD00002460020B1F5007F00D100BF13880B4013
:100AE0000BB1012000E00020704770B502460024E1
:100AF00000230025002040F66A16B14200D100BF55
:100B0000C1F3421501F01F03012606FA03F3012D7C
:100B100002D19689334006E0022D02D1168A334075
:100B200001E0968A33400C12012606FA04F4168876
:100B3000344013B10CB1012000E0002070BDF0B5CD
:100B40000346002400260025002040F66A17B9421B
:100B500000D100BF1846C1F3421401F01F0601275F
:100B600007FA06F5012C01D10C3004E0022C01D16A
:100B7000103000E014301AB107682F43076002E01C
:100B80000768AF430760F0BD2DE9F04786B0054622
:100B90000E460024A24600BFA1460027B08900B13E
:100BA00000BF2F462C8A4CF6FF700440F0880443A7
:100BB0002C82AC894EF6F3100440B088318908438A
:100BC000718908430443AC81AC8A4FF6FF4004406E
:100BD000B0890443AC8201A8FFF7BEFC1F488742DE
:100BE00002D1DDF810A001E0DDF80CA0A88900F426
:100BF000004040B10AEBCA0000EB0A10316849001E
:100C0000B0FBF1F807E00AEBCA0000EB0A1031680C
:100C10008900B0FBF1F86420B8FBF0F00401200972
:100C2000642101FB1089A88900F4004040B1322002
:100C300000EBC900B0FBF1F000F00700044308E04E
:100C4000322000EB09106421B0FBF1F000F00F003E
:100C500004432C8106B0BDE8F08700000038014055
:100C600001468888C0F308007047C1F308028280FB
:100C7000704700001FB501218804FFF74DFC4FF4B9
:100C8000165000900020ADF80400ADF80600ADF855
:100C90000800ADF80C000C20ADF80A0069460B48BE
:100CA000FFF772FF012240F225510848FFF747FF86
:100CB000012240F224410548FFF741FFFFF7C6FE3D
:100CC00001210248FFF7D2FE1FBD0000004800408E
:100CD0000FB470B586B006460CA8019073E00B986F
:100CE00000785C281CD10B98401C0B9000786E2873
:100CF00009D072280FD10D213046FFF7B6FF0B98AF
:100D0000401C0B900BE00A213046FFF7AEFF0B981A
:100D1000401C0B9003E00B98401C0B9000BF4BE075
:100D20000B980078252840D10B98401C0B90007838
:100D3000642818D0732833D1019810C801900BE0B3
:100D400021783046FFF791FF00BF80213046FFF742
:100D5000BFFE0028F9D0641C20780028F0D10B9841
:100D6000401C0B9020E0019820C801900A2202A9A3
:100D7000284600F057F802AC0BE021783046FFF728
:100D800074FF00BF80213046FFF7A2FE0028F9D093
:100D9000641C20780028F0D10B98401C0B9003E0D5
:100DA0000B98401C0B9000BF06E00B9810F8011B3D
:100DB0000B903046FFF759FF00BF80213046FFF708
:100DC00087FE0028F9D00B980078002887D106B05C
:100DD00070BC5DF814FB00BFFEE700BF7047000069
:100DE00010B56FF00400FFF797FC0A4800680A4945
:100DF000B0FBF1F0094908700846007800EB4001AB
:100E0000C1EBC0104FF6FF7101EAC0000449088031
:100E100010BD00000000002000127A001400002025
:100E200016000020F0B503460D4616460027294659
:100E30000A2E03D0002008702846F0BD33B93020B8
:100E400001F8010B002008702846F6E7002B03DAB2
:100E50002D2001F8010B5B4242F210720DE093FB72
:100E6000F2F404B937B104F1300001F8010B04FBCE
:100E7000123301270A2092FBF0F2002AEFDC002057
:100E800008702846D9E700004FF4A060FFF738FB50
:100E9000FFF7A6FFFFF7D8FA4FF4165000F016F848
:100EA00000F064F841F61F4141F28730FFF792FCF1
:100EB00003E002A10448FFF70BFFFAE768616861ED
:100EC00068686168610000000048004010B586B0A5
:100ED0000446012144F20500FFF72EFB4FF4007099
:100EE000ADF8140003208DF8160018208DF81700B7
:100EF00005A91C48FFF7D1F94FF48060ADF8140044
:100F000004208DF8170005A91648FFF7C6F925201B
:100F10008DF8000003208DF801008DF802000120FB
:100F20008DF803006846FFF7B3FA01940020ADF88E
:100F30000800ADF80A00ADF80C00ADF810000C2068
:100F4000ADF80E0001A90848FFF71EFE012240F28D
:100F500025510548FFF7F3FD01210348FFF786FD02
:100F600006B010BD000801400038014010B5FFF781
:100F700089FDFFF77FFE10BD980F000800000020DC
:100F8000340000006C010008CC0F00083400002081
:100F9000F40700008801000800A24A0400000000D5
:100FA0000000000001020304060708090000000019
:100FB0000000000000000000000001020304010224
:0C0FC000030406070809020406080000EC
:0400000508000131BD
:00000001FF
